:100000000C942A000C949A190C94C5190C94F019AC
:100010000C9447000C9447000C9447000C94470044
:100020000C9447000C9447000C9447000C94101A51
:100030000C9447000C9447000C9447000C94470024
:100040000C9447000C9447000C9447000C94470014
:100050000C94470011241FBECFE5D8E0DEBFCDBF12
:1000600011E0A0E6B0E0ECE9F5E302C005900D92E6
:10007000AA36B107D9F711E0AAE6B1E001C01D9296
:10008000A337B107E1F70E945A1A0C94CC1A0C94CA
:100090000000EF92FF920F931F937B018C0120E0F1
:1000A00030E040E05FE40E94F50388238CF0C80153
:1000B000B70120E030E040E05FE40E94C1010E940F
:1000C000B3049B01AC01205030404040504806C072
:1000D000C801B7010E94B3049B01AC01B901CA0178
:1000E0001F910F91FF90EF900895A0E0B0E0EBE733
:1000F000F0E00C94951ADC012B01FA019C919230EE
:1001000008F439C1EB018881823008F433C194309E
:1001100069F4843009F02FC111969C91119789815F
:10012000981709F428C1A0E6B0E025C1843009F48D
:1001300021C18230A9F4923009F01DC19A01AD01AC
:1001400088E0EA010990AE01E90109929E0181501F
:10015000C1F7E201898111969C918923818308C1AD
:10016000923009F407C112962D903C901397EB0141
:100170008A819B811496AD90BD90CD90DC901797AD
:10018000EC80FD800E811F819101281B390BB90184
:1001900037FF04C066277727621B730B6032710537
:1001A0000CF061C0121613066CF537014801062EDB
:1001B00004C096948794779467940A94D2F721E0C8
:1001C00030E040E050E004C0220F331F441F551FB1
:1001D0006A95D2F721503040404050402E213F21B7
:1001E00040235123211531054105510521F021E01E
:1001F00030E040E050E079018A01E628F72808293C
:1002000019293CC0232BD1F1260E371E350146019A
:10021000062E04C096948794779467940A94D2F734
:1002200021E030E040E050E004C0220F331F441FC3
:10023000551F6A95D2F721503040404050402A2146
:100240003B214C215D21211531054105510521F04E
:1002500021E030E040E050E059016A01A628B728CB
:10026000C828D9280BC0821593052CF01C01AA249C
:10027000BB24650103C0EE24FF24870111969C91E5
:10028000D20111968C91981709F445C0992339F041
:10029000A80197012A193B094C095D0906C0A6016E
:1002A00095012E193F09400B510B57FD08C01182D3
:1002B0003382228224833583468357831DC081E0A5
:1002C00081833382228288279927DC01821B930B4A
:1002D000A40BB50B84839583A683B7830DC0220F2F
:1002E000331F441F551F24833583468357838281E0
:1002F000938101979383828324813581468157813D
:10030000DA01C9010197A109B1098F5F9F4FAF4F72
:10031000BF4328F30BC0918333822282EA0CFB1C7B
:100320000C1D1D1DE482F5820683178383E0808304
:10033000248135814681578157FF1AC0C901AA27F8
:1003400097FDA095BA2F81709070A070B0705695EF
:10035000479537952795822B932BA42BB52B848318
:100360009583A683B7838281938101969383828349
:10037000DF0101C0D201CD01CDB7DEB7E2E10C94BF
:10038000B11AA0E2B0E0E7ECF1E00C94A11A6983A5
:100390007A838B839C832D833E834F835887E9E048
:1003A000EE2EF12CEC0EFD1ECE010196B7010E943F
:1003B000A4068E010F5E1F4FCE010596B8010E9464
:1003C000A4068A8991E089278A8BC701B801AE010A
:1003D000475E5F4F0E9475000E94CF05A096E6E041
:1003E0000C94BD1AA0E2B0E0E8EFF1E00C94A11A81
:1003F00069837A838B839C832D833E834F835887C5
:10040000F9E0EF2EF12CEC0EFD1ECE010196B701A6
:100410000E94A4068E010F5E1F4FCE010596B80103
:100420000E94A406C701B801AE01475E5F4F0E945B
:1004300075000E94CF05A096E6E00C94BD1AA0E2DC
:10044000B0E0E5E2F2E00C94951A69837A838B833D
:100450009C832D833E834F835887CE010196BE0136
:10046000675F7F4F0E94A406CE010596BE016F5EB6
:100470007F4F0E94A4069985923088F08989823046
:10048000C8F0943019F4823051F404C0843029F457
:10049000923081F480E690E0C6C0923049F420E0CA
:1004A0009A858A89981321E02A87CE010996BBC0D4
:1004B000823049F420E09A858A89981321E02A8BBA
:1004C000CE014196B0C02D843E844F8458886D88FB
:1004D0007E888F88988CEE24FF248701AA24BB2471
:1004E000650140E050E060E070E0E0E0F0E0C10174
:1004F00081709070892BE9F0E60CF71C081D191D1E
:100500009A01AB012A0D3B1D4C1D5D1D80E090E062
:10051000A0E0B0E0E614F7040805190520F481E036
:1005200090E0A0E0B0E0BA01A901480F591F6A1F8E
:100530007B1FAA0CBB1CCC1CDD1C97FE08C081E0F5
:1005400090E0A0E0B0E0A82AB92ACA2ADB2A3196B6
:10055000E032F10549F0660C771C881C991C569412
:10056000479437942794C3CFFA85EA892B893C892D
:100570008B859C85280F391F2E5F3F4F17C0CA01FE
:1005800081709070892B61F016950795F794E79428
:1005900080E090E0A0E0B0E8E82AF92A0A2B1B2BC3
:1005A00076956795579547952F5F3F4F77FDE7CF36
:1005B0000CC0440F551F661F771F17FD4160EE0CDE
:1005C000FF1C001F111F21503040403090E05907A0
:1005D00090E0690790E4790760F32B8F3C8FDB0193
:1005E000CA018F779070A070B07080349105A1051A
:1005F000B10561F447FD0AC0E114F10401051105DC
:1006000029F0405C5F4F6F4F7F4F40781A8EFE1786
:1006100011F081E08A8F4D8F5E8F6F8F78A383E01A
:10062000898FCE0149960E94CF05A096E2E10C94F5
:10063000B11AA8E1B0E0EFE1F3E00C949D1A6983F0
:100640007A838B839C832D833E834F835887B9E0C5
:10065000EB2EF12CEC0EFD1ECE010196B7010E948F
:10066000A4068E010F5E1F4FCE010596B8010E94B1
:10067000A4062985223008F47EC03989323010F46E
:10068000B8017CC08A859A8989278A87243011F02D
:10069000223031F4231709F06EC060E670E06EC0BE
:1006A000343039F41D861E861F86188A1C861B86E8
:1006B00004C0323021F484E08987B7015FC02B8504
:1006C0003C858B899C89281B390B3C872B87ED84C3
:1006D000FE840F851889AD88BE88CF88D88CEA142F
:1006E000FB040C051D0540F4EE0CFF1C001F111F40
:1006F000215030403C872B8720E030E040E050E044
:1007000080E090E0A0E0B0E460E070E0EA14FB0478
:100710000C051D0540F0282B392B4A2B5B2BEA18C2
:10072000FB080C091D09B695A79597958795EE0CC2
:10073000FF1C001F111F6F5F7F4F6F31710531F775
:10074000DA01C9018F779070A070B0708034910584
:10075000A105B10561F427FD0AC0E114F10401050A
:10076000110529F0205C3F4F4F4F5F4F20782D87B8
:100770003E874F87588BBE01675F7F4FCB010E943A
:10078000CF056896EAE00C94B91AA8E1B0E0EBEC6A
:10079000F3E00C94A11A69837A838B839C832D8365
:1007A0003E834F83588789E0E82EF12CEC0EFD1E26
:1007B000CE010196B7010E94A4068E010F5E1F4F65
:1007C000CE010596B8010E94A4068985823040F0CA
:1007D0008989823028F0C701B8010E941C0701C036
:1007E0008FEF6896E6E00C94BD1AA8E1B0E0EBEF5D
:1007F000F3E00C94A11A69837A838B839C832D8305
:100800003E834F83588789E0E82EF12CEC0EFD1EC5
:10081000CE010196B7010E94A4068E010F5E1F4F04
:10082000CE010596B8010E94A4068985823040F069
:100830008989823028F0C701B8010E941C0701C0D5
:100840008FEF6896E6E00C94BD1AA8E1B0E0EBE209
:10085000F4E00C94A11A69837A838B839C832D83A3
:100860003E834F83588789E0E82EF12CEC0EFD1E65
:10087000CE010196B7010E94A4068E010F5E1F4FA4
:10088000CE010596B8010E94A4068985823040F009
:100890008989823028F0C701B8010E941C0701C075
:1008A00081E06896E6E00C94BD1AA8E0B0E0EBE5C4
:1008B000F4E00C949E1A9B01AC0183E08983DA0179
:1008C000C9018827B7FD83959927AA27BB27B82E8A
:1008D000211531054105510519F482E089833AC09B
:1008E0008823A9F0203080E0380780E0480780E8BE
:1008F000580729F460E070E080E09FEC30C0EE24FF
:10090000FF248701E21AF30A040B150B02C07901D8
:100910008A018EE1C82ED12CDC82CB82ED82FE8250
:100920000F831887C801B7010E9480050197181628
:10093000190684F4082E04C0EE0CFF1C001F111FC2
:100940000A94D2F7ED82FE820F831887C81AD90A5B
:10095000DC82CB82BA82CE0101960E94CF05289616
:10096000E9E00C94BA1AACE0B0E0E9EBF4E00C94E6
:10097000A51A69837A838B839C83CE010196BE017D
:100980006B5F7F4F0E94A4068D81823061F18230BF
:1009900050F1843021F48E81882351F12EC02F81B3
:1009A000388537FD20C06E812F3131051CF066235C
:1009B000F9F023C08EE190E0821B930B29853A85E4
:1009C0004B855C8504C056954795379527958A9544
:1009D000D2F76623B1F050954095309521953F4F61
:1009E0004F4F5F4F0EC020E030E040E050E009C0C4
:1009F0002FEF3FEF4FEF5FE704C020E030E040E033
:100A000050E8B901CA012C96E2E00C94C11AA8E0A2
:100A1000B0E0EDE0F5E00C949D1A7B018C016115CE
:100A200071058105910519F482E0898360C083E036
:100A300089838EE1C82ED12CDC82CB82ED82FE82AE
:100A40000F831887C801B7010E948005FC01319708
:100A5000F7FF3BC0222733272E1B3F0B57016801AE
:100A6000022E04C0D694C794B794A7940A94D2F7E0
:100A700040E050E060E070E081E090E0A0E0B0E0B5
:100A800004C0880F991FAA1FBB1F2A95D2F7019790
:100A9000A109B1098E219F21A023B1230097A105AF
:100AA000B10521F041E050E060E070E04A295B29A7
:100AB0006C297D294D835E836F8378878EE190E07A
:100AC0008E1B9F0B9C838B8312C0309781F00E2E60
:100AD00004C0EE0CFF1C001F111F0A94D2F7ED8218
:100AE000FE820F831887CE1ADF0ADC82CB821A823D
:100AF000CE0101960E94CF052896EAE00C94B91A1F
:100B0000EF92FF920F931F937B018C0180E0E81618
:100B100080E0F80681E0080780E0180788F48FEF8E
:100B2000E816F1040105110531F028F088E090E0A5
:100B3000A0E0B0E017C080E090E0A0E0B0E012C01C
:100B400080E0E81680E0F80680E0080781E01807FA
:100B500028F088E190E0A0E0B0E004C080E190E0FF
:100B6000A0E0B0E020E230E040E050E0281B390B8C
:100B70004A0B5B0B04C016950795F794E7948A958A
:100B8000D2F7F701E859FF4F8081281B310941094D
:100B90005109C9011F910F91FF90EF900895DF92C5
:100BA000EF92FF920F931F93FC01E480F580068182
:100BB0001781D1808081823048F480E090E0A0E10C
:100BC000B0E0E82AF92A0A2B1B2BA5C0843009F4CF
:100BD0009FC0823021F4EE24FF24870105C0E11478
:100BE000F1040105110519F4E0E0F0E096C062811E
:100BF00073819FEF623879070CF05BC022E83FEF0A
:100C0000261B370B2A3131052CF020E030E040E084
:100C100050E02AC0B801A701022E04C0769567955E
:100C2000579547950A94D2F781E090E0A0E0B0E0B4
:100C300004C0880F991FAA1FBB1F2A95D2F70197DE
:100C4000A109B1098E219F21A023B1230097A105FD
:100C5000B10521F081E090E0A0E0B0E09A01AB01A5
:100C6000282B392B4A2B5B2BDA01C9018F77907027
:100C7000A070B07080349105A105B10539F427FF4B
:100C800009C0205C3F4F4F4F5F4F04C0215C3F4F76
:100C90004F4F5F4FE0E0F0E02030A0E03A07A0E0E7
:100CA0004A07A0E45A0710F0E1E0F0E079018A0178
:100CB00027C06038710564F5FB01E158FF4FD8018A
:100CC000C7018F779070A070B07080349105A10536
:100CD000B10539F4E7FE0DC080E490E0A0E0B0E09B
:100CE00004C08FE390E0A0E0B0E0E80EF91E0A1F18
:100CF0001B1F17FF05C016950795F794E7943196CB
:100D000087E016950795F794E7948A95D1F705C083
:100D1000EE24FF248701EFEFF0E06E2F6795662742
:100D20006795902F9F77D794DD24D7948E2F869543
:100D3000492F462B582F5D29B701CA011F910F91EA
:100D4000FF90EF90DF900895FC01DB01408151811D
:100D50002281622F6F7770E0221F2227221F93814A
:100D6000892F880F822B282F30E0991F9927991FF0
:100D700011969C93119721153105A9F5411551053F
:100D80006105710511F482E037C082E89FEF139688
:100D90009C938E9312979A01AB0167E0220F331F49
:100DA000441F551F6A95D1F783E08C930DC0220F25
:100DB000331F441F551F12968D919C9113970197D5
:100DC00013969C938E931297203080E0380780E032
:100DD000480780E4580758F314962D933D934D939C
:100DE0005C93179708952F3F310579F4411551050C
:100DF0006105710519F484E08C93089564FF03C0C4
:100E000081E08C9312C01C9210C02F573040139673
:100E10003C932E93129783E08C9387E0440F551FE9
:100E2000661F771F8A95D1F7706414964D935D9372
:100E30006D937C93179708951F93DC01FB019C91A0
:100E4000923008F447C08081823008F443C0943067
:100E500051F411961C91843099F58181682F70E0CE
:100E6000611B71093FC0843021F0923031F482302F
:100E7000B9F18181882389F12DC011961C911197B8
:100E80008230F1F081811817D9F412962D913C919E
:100E90001397828193818217930794F0281739075B
:100EA000BCF014968D919D910D90BC91A02D248144
:100EB000358146815781281739074A075B0718F49F
:100EC000112341F00AC082179307A407B50740F425
:100ED000112319F061E070E005C06FEF7FEF02C0F1
:100EE00060E070E0CB011F910895DF93CF9300D0B5
:100EF0000F92CDB7DEB789838981282F30E03B83FD
:100F00002A838A819B818130910521F12A813B814D
:100F1000223031052CF48A819B81009761F046C014
:100F20002A813B812230310521F18A819B818330E6
:100F3000910571F13BC0A3E5B0E0E3E5F0E080810D
:100F4000877F8C93A3E5B0E0E3E5F0E080818F7BC1
:100F50008C932CC0A3E5B0E0E3E5F0E080818860ED
:100F60008C93A3E5B0E0E3E5F0E080818F7B8C9388
:100F70001DC0A3E5B0E0E3E5F0E0808188608C93DC
:100F8000A3E5B0E0E3E5F0E0808180648C930EC0DF
:100F9000A3E5B0E0E3E5F0E08081877F8C93A3E5F3
:100FA000B0E0E3E5F0E0808180648C93E2E5F0E07E
:100FB00010820F900F900F90CF91DF910895DF93E3
:100FC000CF9300D00F92CDB7DEB789838981282FC8
:100FD00030E03B832A838A819B818330910509F429
:100FE00049C02A813B81243031055CF48A819B8190
:100FF0008130910599F02A813B812230310521F120
:101000007AC08A819B818430910509F449C02A8184
:101010003B812530310509F459C06DC0A3E5B0E02E
:10102000E3E5F0E0808181608C93A3E5B0E0E3E547
:10103000F0E080818D7F8C93A3E5B0E0E3E5F0E004
:1010400080818B7F8C9357C0A3E5B0E0E3E5F0E0AF
:1010500080818E7F8C93A3E5B0E0E3E5F0E08081B2
:1010600082608C93A3E5B0E0E3E5F0E080818B7FC4
:101070008C9341C0A3E5B0E0E3E5F0E080818160BE
:101080008C93A3E5B0E0E3E5F0E0808182608C938F
:10109000A3E5B0E0E3E5F0E080818B7F8C932BC08B
:1010A000A3E5B0E0E3E5F0E080818E7F8C93A3E5DB
:1010B000B0E0E3E5F0E080818D7F8C93A3E5B0E0C4
:1010C000E3E5F0E0808184608C9315C0A3E5B0E097
:1010D000E3E5F0E0808181608C93A3E5B0E0E3E597
:1010E000F0E080818D7F8C93A3E5B0E0E3E5F0E054
:1010F000808184608C930F900F900F90CF91DF913F
:101100000895DF93CF930F92CDB7DEB78983E2E5E1
:10111000F0E0898180830F90CF91DF910895DF9374
:10112000CF93CDB7DEB7A3E5B0E0E3E5F0E0808193
:101130008E7F8C93A3E5B0E0E3E5F0E080818D7FC6
:101140008C93A3E5B0E0E3E5F0E080818B7F8C93A6
:10115000CF91DF910895DF93CF9300D00F92CDB759
:10116000DEB789838981282F30E03B832A838A81F7
:101170009B818630910531F02A813B8127303105F2
:10118000B9F02BC0A3E5B0E0E3E5F0E080818E7F0D
:101190008C93A3E5B0E0E3E5F0E0808182608C937E
:1011A000A3E5B0E0E3E5F0E0808184608C9315C0B6
:1011B000A3E5B0E0E3E5F0E0808181608C93A3E5F6
:1011C000B0E0E3E5F0E0808182608C93A3E5B0E0DD
:1011D000E3E5F0E0808184608C930F900F900F9096
:1011E000CF91DF910895DF93CF9300D00F92CDB7C9
:1011F000DEB789838981282F30E03B832A838A8167
:101200009B81009731F02A813B812130310591F09B
:1012100022C0E8E5F0E08081882F90E08170907036
:101220000097B9F3A8E5B0E0E8E5F0E080818160DF
:101230008C9311C0E8E5F0E080818695882F90E0DE
:10124000817090700097B1F3A8E5B0E0E8E5F0E0B8
:10125000808182608C930F900F900F90CF91DF91DF
:101260000895DF93CF9300D0CDB7DEB79A838983FB
:10127000E2E5F0E08081E981FA8180830F900F90B0
:10128000CF91DF910895DF93CF9300D00F92CDB728
:10129000DEB789838981282F30E03B832A838A81C6
:1012A0009B81009731F02A813B812130310549F043
:1012B0000FC0A9E5B0E0E9E5F0E0808181608C93A2
:1012C00007C0A9E5B0E0E9E5F0E0808182608C9399
:1012D0000F900F900F90CF91DF910895DF93CF93F0
:1012E00000D00F92CDB7DEB78A836B8319828A81D3
:1012F0000E94DF0706C080E00E94F30889818F5FAB
:10130000898399818B819817B0F30E948F080F9081
:101310000F900F90CF91DF910895DF93CF93CDB7CA
:10132000DEB7E0E2F0E082E08083E1E2F0E010820C
:10133000E2E2F0E082E08083E6E5F0E084E08083B2
:10134000CF91DF910895DF93CF93CDB7DEB7E6E578
:10135000F0E084EA8083E6E5F0E080818823DCF732
:10136000CF91DF910895DF93CF93CDB7DEB7E6E558
:10137000F0E084E98083CF91DF910895DF93CF93EC
:101380000F92CDB7DEB78983E3E2F0E089818083F5
:10139000E6E5F0E084E88083E6E5F0E080818823FC
:1013A000DCF70F90CF91DF910895DF93CF93CDB706
:1013B000DEB7E6E5F0E084EC8083E6E5F0E08081EE
:1013C0008823DCF7E3E2F0E08081CF91DF9108959C
:1013D000DF93CF93CDB7DEB7E6E5F0E084E8808316
:1013E000E6E5F0E080818823DCF7E3E2F0E080814D
:1013F000CF91DF910895DF93CF930F92CDB7DEB7F2
:10140000E1E2F0E08081887F898389810F90CF912C
:10141000DF910895DF93CF930F92CDB7DEB7898325
:101420008981813041F4AFE5B0E0EFE5F0E0808103
:1014300080688C9307C0AFE5B0E0EFE5F0E0808115
:101440008F778C930F90CF91DF910895DF93CF9397
:1014500000D000D0CDB7DEB789836A8381E00E94D7
:101460000A0A8981282F30E03C832B838B819C8161
:101470008130910509F470C02B813C812230310507
:1014800009F4CEC08B819C81009709F0ECC08A8161
:101490008823B1F4A5E5B0E0E5E5F0E080818E7F3A
:1014A0008C93A5E5B0E0E5E5F0E080818D7F8C933D
:1014B000ABE5B0E0EBE5F0E0808180648C93D3C0D5
:1014C0008A818130B1F4A5E5B0E0E5E5F0E0808106
:1014D00081608C93A5E5B0E0E5E5F0E080818D7F4B
:1014E0008C93ABE5B0E0EBE5F0E0808180648C9319
:1014F000BAC08A818230B1F4A5E5B0E0E5E5F0E05C
:1015000080818E7F8C93A5E5B0E0E5E5F0E08081F9
:1015100082608C93ABE5B0E0EBE5F0E08081806425
:101520008C93A1C08A81833009F09DC0A5E5B0E00D
:10153000E5E5F0E0808181608C93A5E5B0E0E5E52C
:10154000F0E0808182608C93ABE5B0E0EBE5F0E009
:10155000808180648C9387C08A818823B1F4A5E55B
:10156000B0E0E5E5F0E080818B7F8C93A5E5B0E00D
:10157000E5E5F0E08081877F8C93ABE5B0E0EBE5BB
:10158000F0E0808180688C936EC08A818130B1F4F4
:10159000A5E5B0E0E5E5F0E0808184608C93A5E509
:1015A000B0E0E5E5F0E08081877F8C93ABE5B0E0CB
:1015B000EBE5F0E0808180688C9355C08A818230B1
:1015C000B1F4A5E5B0E0E5E5F0E080818B7F8C9398
:1015D000A5E5B0E0E5E5F0E0808188608C93ABE5BF
:1015E000B0E0EBE5F0E0808180688C933CC08A81BC
:1015F0008330C9F5A5E5B0E0E5E5F0E080818460E1
:101600008C93A5E5B0E0E5E5F0E0808188608C93FF
:10161000ABE5B0E0EBE5F0E0808180688C9323C01F
:101620008A81823079F4A4E5B0E0E4E5F0E08081DD
:101630008F7B8C93ABE5B0E0EBE5F0E080818062DE
:101640008C9311C08A81833071F4A4E5B0E0E4E5A5
:10165000F0E0808180648C93ABE5B0E0EBE5F0E0F6
:10166000808180628C930F900F900F900F90CF919C
:10167000DF910895DF93CF9300D00F92CDB7DEB7FF
:1016800089838981282F30E03B832A838A819B814B
:1016900081309105F1F02A813B812230310531F111
:1016A0008A819B810097A9F5EAE5F0E08081829527
:1016B000869586958370882F90E081709070009752
:1016C00099F3AAE5B0E0EAE5F0E0808180648C93CC
:1016D00020C0EAE5F0E080818823DCF7AAE5B0E0ED
:1016E000EAE5F0E0808180688C9313C0EAE5F0E0E1
:1016F0008081829586958770882F90E081709070A8
:101700000097A1F3AAE5B0E0EAE5F0E0808180620D
:101710008C930F900F900F90CF91DF910895DF93EE
:10172000CF9300D00F92CDB7DEB789838981282F60
:1017300030E03B832A838A819B818130910589F047
:101740002A813B8122303105A1F08A819B8100975B
:10175000B9F4ABE5B0E0EBE5F0E0808180648C9318
:101760000FC0ABE5B0E0EBE5F0E0808180688C93E2
:1017700007C0ABE5B0E0EBE5F0E0808180628C93E0
:101780000F900F900F90CF91DF910895DF93CF933B
:1017900000D00F92CDB7DEB789838981282F30E042
:1017A0003B832A838A819B818130910589F02A813C
:1017B0003B8122303105A1F08A819B810097B9F4E9
:1017C000ABE5B0E0EBE5F0E080818F7B8C930FC060
:1017D000ABE5B0E0EBE5F0E080818F778C9307C05C
:1017E000ABE5B0E0EBE5F0E080818F7D8C930F906E
:1017F0000F900F90CF91DF910895DF93CF9300D09A
:1018000000D00F92CDB7DEB789836A834B8389817D
:10181000843008F0D9C08A81883008F0D5C08B8127
:10182000823008F0D1C08981282F30E03D832C839D
:101830008C819D818130910509F443C02C813D81CB
:10184000223031052CF48C819D81009771F0BCC051
:101850002C813D812230310509F45FC08C819D814E
:101860008330910509F485C0AFC08B818823A9F42A
:10187000AAE3B0E0EAE3F0E08081482F8A81282FD4
:1018800030E081E090E0022E02C0880F991F0A9498
:10189000E2F7809584238C9397C0AAE3B0E0EAE353
:1018A000F0E08081482F8A81282F30E081E090E0AD
:1018B000022E02C0880F991F0A94E2F7842B8C93A2
:1018C00083C08B818823A9F4A7E3B0E0E7E3F0E0CD
:1018D0008081482F8A81282F30E081E090E0022E1D
:1018E00002C0880F991F0A94E2F7809584238C9395
:1018F0006BC0A7E3B0E0E7E3F0E08081482F8A8186
:10190000282F30E081E090E0022E02C0880F991F5E
:101910000A94E2F7842B8C9357C08B818823A9F417
:10192000A4E3B0E0E4E3F0E08081482F8A81282F2F
:1019300030E081E090E0022E02C0880F991F0A94E7
:10194000E2F7809584238C933FC0A4E3B0E0E4E306
:10195000F0E08081482F8A81282F30E081E090E0FC
:10196000022E02C0880F991F0A94E2F7842B8C93F1
:101970002BC08B818823A9F4A1E3B0E0E1E3F0E080
:101980008081482F8A81282F30E081E090E0022E6C
:1019900002C0880F991F0A94E2F7809584238C93E4
:1019A00013C0A1E3B0E0E1E3F0E08081482F8A8139
:1019B000282F30E081E090E0022E02C0880F991FAE
:1019C0000A94E2F7842B8C930F900F900F900F9056
:1019D0000F90CF91DF910895DF93CF9300D000D087
:1019E0000F92CDB7DEB789836A834B8389818430B8
:1019F00008F0D9C08A81883008F0D5C08B81823048
:101A000008F0D1C08981282F30E03D832C838C8160
:101A10009D818130910509F443C02C813D812230A4
:101A200031052CF48C819D81009771F0BCC02C8114
:101A30003D812230310509F45FC08C819D81833066
:101A4000910509F485C0AFC08B818823A9F4ABE36D
:101A5000B0E0EBE3F0E08081482F8A81282F30E06E
:101A600081E090E0022E02C0880F991F0A94E2F7ED
:101A7000809584238C9397C0ABE3B0E0EBE3F0E078
:101A80008081482F8A81282F30E081E090E0022E6B
:101A900002C0880F991F0A94E2F7842B8C9383C0AD
:101AA0008B818823A9F4A8E3B0E0E8E3F0E080812B
:101AB000482F8A81282F30E081E090E0022E02C07A
:101AC000880F991F0A94E2F7809584238C936BC04A
:101AD000A8E3B0E0E8E3F0E08081482F8A81282F76
:101AE00030E081E090E0022E02C0880F991F0A9436
:101AF000E2F7842B8C9357C08B818823A9F4A5E34C
:101B0000B0E0E5E3F0E08081482F8A81282F30E0C3
:101B100081E090E0022E02C0880F991F0A94E2F73C
:101B2000809584238C933FC0A5E3B0E0E5E3F0E02B
:101B30008081482F8A81282F30E081E090E0022EBA
:101B400002C0880F991F0A94E2F7842B8C932BC054
:101B50008B818823A9F4A2E3B0E0E2E3F0E0808186
:101B6000482F8A81282F30E081E090E0022E02C0C9
:101B7000880F991F0A94E2F7809584238C9313C0F1
:101B8000A2E3B0E0E2E3F0E08081482F8A81282FD1
:101B900030E081E090E0022E02C0880F991F0A9485
:101BA000E2F7842B8C930F900F900F900F900F9073
:101BB000CF91DF910895DF93CF9300D000D0CDB7C0
:101BC000DEB789836A838981843008F072C08A8194
:101BD000883008F06EC08981282F30E03C832B8349
:101BE0008B819C818130910549F12B813C81223090
:101BF00031052CF48B819C81009761F05AC02B81B8
:101C00003C812230310571F18B819C8183309105BB
:101C1000E9F14FC0ABE3B0E0EBE3F0E08081482FA7
:101C20008A81282F30E081E090E0022E02C0880FE8
:101C3000991F0A94E2F784278C933BC0A8E3B0E095
:101C4000E8E3F0E08081482F8A81282F30E081E0AE
:101C500090E0022E02C0880F991F0A94E2F78427B1
:101C60008C9327C0A5E3B0E0E5E3F0E08081482F46
:101C70008A81282F30E081E090E0022E02C0880F98
:101C8000991F0A94E2F784278C9313C0A2E3B0E073
:101C9000E2E3F0E08081482F8A81282F30E081E064
:101CA00090E0022E02C0880F991F0A94E2F7842761
:101CB0008C930F900F900F900F90CF91DF9108951C
:101CC000DF93CF9300D000D00F92CDB7DEB78A83D9
:101CD0006B838FEF89838A81843008F06BC08B819E
:101CE000883008F067C08A81282F30E03D832C833C
:101CF0004C815D814130510541F18C819D81823063
:101D0000910534F42C813D812115310561F052C0DB
:101D10004C815D814230510551F18C819D81833030
:101D20009105B9F147C0E9E3F0E08081282F30E068
:101D30008B81882F90E0A90102C0559547958A951F
:101D4000E2F7CA018170898335C0E6E3F0E0808163
:101D5000282F30E08B81882F90E0A90102C0559593
:101D600047958A95E2F7CA018170898323C0E3E32E
:101D7000F0E08081282F30E08B81882F90E0A9014E
:101D800002C0559547958A95E2F7CA01817089830B
:101D900011C0E0E3F0E08081282F30E08B81882FB4
:101DA00090E0A90102C0559547958A95E2F7CA01CE
:101DB0008170898389810F900F900F900F900F9001
:101DC000CF91DF910895DF93CF9300D000D00F9291
:101DD000CDB7DEB789836A834B83A6E2B0E0E6E243
:101DE000F0E0808180688C938981813041F4A7E2A2
:101DF000B0E0E7E2F0E0808180628C930AC08981E4
:101E0000882339F4A7E2B0E0E7E2F0E080818F7D3B
:101E10008C938A81882379F4A7E2B0E0E7E2F0E0CE
:101E200080818F778C93A7E2B0E0E7E2F0E08081D9
:101E30008F7B8C9311C08981813071F4A7E2B0E06F
:101E4000E7E2F0E0808180688C93A7E2B0E0E7E20F
:101E5000F0E0808180648C938B81282F30E03D837B
:101E60002C838C819D818031910509F46BC02C817C
:101E70003D81213131058CF48C819D818430910527
:101E8000A9F12C813D812830310509F445C08C81B0
:101E90009D8182309105A1F0ACC02C813D81203420
:101EA000310509F47BC08C819D818038910509F44E
:101EB0008BC02C813D812032310509F459C099C075
:101EC000A6E2B0E0E6E2F0E080818E7F8C93A6E2AD
:101ED000B0E0E6E2F0E080818D7F8C93A6E2B0E096
:101EE000E6E2F0E080818B7F8C9383C0A6E2B0E0D5
:101EF000E6E2F0E080818E7F8C93A6E2B0E0E6E23D
:101F0000F0E0808182608C93A6E2B0E0E6E2F0E04F
:101F100080818B7F8C936DC0A6E2B0E0E6E2F0E0BA
:101F2000808181608C93A6E2B0E0E6E2F0E08081FF
:101F300082608C93A6E2B0E0E6E2F0E080818B7FE5
:101F40008C9357C0A6E2B0E0E6E2F0E080818E7F9D
:101F50008C93A6E2B0E0E6E2F0E080818D7F8C9386
:101F6000A6E2B0E0E6E2F0E0808184608C9341C0BC
:101F7000A6E2B0E0E6E2F0E0808181608C93A6E228
:101F8000B0E0E6E2F0E080818D7F8C93A6E2B0E0E5
:101F9000E6E2F0E0808184608C932BC0A6E2B0E0A2
:101FA000E6E2F0E080818E7F8C93A6E2B0E0E6E28C
:101FB000F0E0808182608C93A6E2B0E0E6E2F0E09F
:101FC000808184608C9315C0A6E2B0E0E6E2F0E088
:101FD000808181608C93A6E2B0E0E6E2F0E080814F
:101FE00082608C93A6E2B0E0E6E2F0E0808184605B
:101FF0008C930F900F900F900F900F90CF91DF91D7
:102000000895DF93CF9300D00F92CDB7DEB78B83C7
:102010008B8187708B83A7E2B0E0E7E2F0E08081FC
:10202000807E8C93A7E2B0E0E7E2F0E090818B81C4
:10203000892B8C931A821982E4E2F0E08081282FA8
:1020400030E089819A81822B932B9A838983E5E200
:10205000F0E08081882F90E0982F88279C0189816B
:102060009A81822B932B9A838983A6E2B0E0E6E2E1
:10207000F0E0808180648C93E6E2F0E080818295DC
:102080008F70882F90E0817090700097A9F3A6E27E
:10209000B0E0E6E2F0E0808180618C9389819A81F2
:1020A0000F900F900F90CF91DF910895DF93CF9312
:1020B00000D0CDB7DEB789836A8380E061E040E479
:1020C0000E94E30E0F900F90CF91DF910895DF9360
:1020D000CF9300D000D00F92CDB7DEB78D8380E0D4
:1020E00090E0A0E0B0E089839A83AB83BC838D81CC
:1020F0000E940110CC01A0E0B0E0BC01CD010E9423
:102100000705DC01CB0189839A83AB83BC8369819A
:102110007A818B819C8120E030E040EA50E40E948B
:102120001F02DC01CB01BC01CD0120E030E040E822
:1021300054E40E941903DC01CB01BC01CD0120E075
:1021400030E048EC52E40E941F02DC01CB0189839D
:102150009A83AB83BC8369817A818B819C810E9445
:102160004900DC01CB010F900F900F900F900F9062
:10217000CF91DF910895DF93CF9300D0CDB7DEB735
:1021800089836A8389816A8141E00E94FD0B0F90F7
:102190000F90CF91DF910895DF93CF9300D0CDB70B
:1021A000DEB789836A8389816A8141E00E94EC0CF1
:1021B0000F900F90CF91DF910895DF93CF9300D0D0
:1021C000CDB7DEB789836A8389816A8140E00E9446
:1021D000EC0C0F900F90CF91DF910895DF93CF9388
:1021E00000D0CDB7DEB789836A8389816A810E9476
:1021F000600E813029F489816A810E94DD100AC055
:1022000089816A810E94600E882321F489816A8114
:102210000E94CC100F900F90CF91DF910895DF9323
:10222000CF93CDB7DEB782E062E041E00E94FD0BC4
:10223000CF91DF910895DF93CF93CDB7DEB782E0E2
:1022400062E041E00E94EC0CCF91DF910895DF93B2
:10225000CF93CDB7DEB782E062E040E00E94EC0CA5
:10226000CF91DF910895DF93CF93CDB7DEB782E0B2
:1022700063E041E00E94FD0BCF91DF910895DF9371
:10228000CF93CDB7DEB782E063E041E00E94EC0C73
:10229000CF91DF910895DF93CF93CDB7DEB782E082
:1022A00063E040E00E94EC0CCF91DF910895DF9352
:1022B000CF93CDB7DEB782E062E041E00E94FD0B34
:1022C000CF91DF910895DF93CF93CDB7DEB782E052
:1022D00064E041E00E94EC0CCF91DF910895DF9320
:1022E000CF93CDB7DEB782E064E040E00E94EC0C13
:1022F000CF91DF910895DF93CF93CDB7DEB72E97BF
:102300000FB6F894DEBF0FBECDBF82E064E041E0BF
:102310000E94EC0C80E090E0AAE7B4E48B879C87F5
:10232000AD87BE876B857C858D859E8520E030E0FE
:102330004AE753E40E941F02DC01CB018F83988798
:10234000A987BA876F81788589859A8520E030E0F2
:1023500040E85FE30E94250488232CF481E090E0AC
:102360009E838D833FC06F81788589859A8520E023
:102370003FEF4FE757E40E94C50318164CF56B85F5
:102380007C858D859E8520E030E040E251E40E940E
:102390001F02DC01CB01BC01CD010E944900DC0120
:1023A000CB019E838D830FC089E190E09C838B835A
:1023B0008B819C810197F1F79C838B838D819E811A
:1023C00001979E838D838D819E81009769F714C04C
:1023D0006F81788589859A850E944900DC01CB014F
:1023E0009E838D838D819E819A83898389819A8141
:1023F0000197F1F79A83898382E064E040E00E94CC
:10240000EC0C2E960FB6F894DEBF0FBECDBFCF9169
:10241000DF910895DF93CF930F92CDB7DEB782E0BF
:1024200062E00E94600E813019F481E089830AC065
:1024300082E063E00E94600E813019F482E08983BB
:1024400001C0198289810F90CF91DF910895DF93A8
:10245000CF93CDB7DEB70E948D09CF91DF9108955C
:10246000DF93CF9300D00F92CDB7DEB79A838983E5
:102470006B830E94A30989819A8180709770880F6D
:10248000892F881F990B9195806A0E94BE098981C6
:102490000E94BE098B810E94BE090E94B3090F9061
:1024A0000F900F90CF91DF910895DF93CF9300D0DD
:1024B00000D0CDB7DEB79A8389837C836B830E947B
:1024C000A30989819A8180709770880F892F881F4E
:1024D000990B9195806A0E94BE0989810E94BE096C
:1024E0000E94A30989819A8180709770880F892F33
:1024F000881F990B9195816A0E94BE090E94E80984
:10250000EB81FC8180830E94B3090F900F900F90A4
:102510000F90CF91DF910895DF93CF9300D00F926A
:10252000CDB7DEB789836A834B838B81882359F4C7
:1025300089816A8140E00E94FD0B89816A8141E0C6
:102540000E94EC0C0DC08B81813051F489816A812D
:1025500040E00E94FD0B89816A8140E00E94EC0C02
:102560000F900F900F90CF91DF910895DF93CF934D
:1025700000D0CDB7DEB789836A8389816A810E94E2
:10258000600E0F900F90CF91DF910895DF93CF935E
:102590000F92CDB7DEB789838981813059F481E00C
:1025A00063E041E00E94FD0B81E063E041E00E94B6
:1025B000EC0C0DC08981882351F481E061E041E099
:1025C0000E94FD0B81E061E041E00E94EC0C0F9065
:1025D000CF91DF910895DF93CF930F92CDB7DEB700
:1025E00089838981813059F481E063E041E00E9470
:1025F000FD0B81E063E040E00E94EC0C0DC089819E
:10260000882351F481E061E041E00E94FD0B81E00C
:1026100061E040E00E94EC0C0F90CF91DF910895B3
:10262000DF93CF9300D0CDB7DEB789836A838A81E9
:102630008130A9F4898164E041E00E94FD0B898129
:1026400065E041E00E94FD0B898166E041E00E9467
:10265000FD0B898167E041E00E94FD0B17C08A8174
:102660008823A1F4898160E041E00E94FD0B89810B
:1026700061E041E00E94FD0B898162E041E00E943F
:10268000FD0B898163E041E00E94FD0B0F900F90EC
:10269000CF91DF910895DF93CF93CDB7DEB7279722
:1026A0000FB6F894DEBF0FBECDBF89836A834B831C
:1026B0008A81813009F06BC08981282F30E03F8307
:1026C0002E838E819F818130910541F12E813F8142
:1026D000223031052CF48E819F81009761F0A1C0DA
:1026E0002E813F812230310561F18E819F818330BF
:1026F0009105D1F196C0ABE3B0E0EBE3F0E080816F
:10270000282F2F708B81882F90E082959295907F53
:102710009827807F9827822B8C9383C0A8E3B0E012
:10272000E8E3F0E08081282F2F708B81882F90E0E4
:1027300082959295907F9827807F9827822B8C9303
:1027400070C0A5E3B0E0E5E3F0E08081282F2F70B2
:102750008B81882F90E082959295907F9827807F3B
:102760009827822B8C935DC0A2E3B0E0E2E3F0E017
:102770008081282F2F708B81882F90E082959295F1
:10278000907F9827807F9827822B8C934AC08A81DC
:10279000882309F046C08981282F30E03D832C83AF
:1027A0008C819D8181309105F9F02C813D81223011
:1027B00031052CF48C819D81009761F032C02C8111
:1027C0003D8122303105D1F08C819D81833091058E
:1027D000F9F027C0EBE3F0E08981982F907F8B819F
:1027E0008F70892B80831DC0E8E3F0E08981982FEA
:1027F000907F8B818F70892B808313C0E5E3F0E09D
:102800008981982F907F8B818F70892B808309C05D
:10281000E2E3F0E08981982F907F8B818F70892B84
:10282000808327960FB6F894DEBF0FBECDBFCF9141
:10283000DF910895DF93CF9300D00F92CDB7DEB72D
:102840008A836B8319828B81813029F48A818295F6
:102850008F70898306C08B81882319F48A818F70D9
:10286000898389810F900F900F90CF91DF91089508
:10287000DF93CF93CDB7DEB7A2970FB6F894DEBF44
:102880000FBECDBF88A369A34AA38AA1843608F0EE
:1028900010C18AA19AE0692F0E94671A8F8F8AA1BE
:1028A0009AE0692F0E94671A892F8E8F1D8EFDC0B6
:1028B00081E00E94EB1280E00E94C61288A169A10B
:1028C0004E8D0E944B1380E090E0A0EAB0E4898F27
:1028D0009A8FAB8FBC8F698D7A8D8B8D9C8D20E00C
:1028E00030E04AE753E40E941F02DC01CB018D8BEC
:1028F0009E8BAF8BB88F6D897E898F89988D20E0F4
:1029000030E040E85FE30E94250488232CF481E056
:1029100090E09C8B8B8B3FC06D897E898F89988DD1
:1029200020E03FEF4FE757E40E94C50318164CF52F
:10293000698D7A8D8B8D9C8D20E030E040E251E4F2
:102940000E941F02DC01CB01BC01CD010E944900A5
:10295000DC01CB019C8B8B8B0FC089E190E09A8BC3
:10296000898B89899A890197F1F79A8B898B8B8951
:102970009C8901979C8B8B8B8B899C89009769F72D
:1029800014C06D897E898F89988D0E944900DC0171
:10299000CB019C8B8B8B8B899C89988B8F878F85A8
:1029A00098890197F1F7988B8F8780E00E94EB124E
:1029B00081E00E94C61288A169A14F8D0E944B132D
:1029C00080E090E0A0EAB0E48B879C87AD87BE876B
:1029D0006B857C858D859E8520E030E04AE753E459
:1029E0000E941F02DC01CB018F839887A987BA87D9
:1029F0006F81788589859A8520E030E040E85FE343
:102A00000E94250488232CF481E090E09E838D832E
:102A10003FC06F81788589859A8520E03FEF4FE739
:102A200057E40E94C50318164CF56B857C858D858F
:102A30009E8520E030E040E251E40E941F02DC016C
:102A4000CB01BC01CD010E944900DC01CB019E837A
:102A50008D830FC089E190E09C838B838B819C8167
:102A60000197F1F79C838B838D819E8101979E83D3
:102A70008D838D819E81009769F714C06F81788561
:102A800089859A850E944900DC01CB019E838D8354
:102A90008D819E819A83898389819A810197F1F73B
:102AA0009A8389838D8D8F5F8D8F8D8D8B3008F408
:102AB000FFCEA2960FB6F894DEBF0FBECDBFCF916A
:102AC000DF910895DF93CF93CDB7DEB7A5970FB60B
:102AD000F894DEBF0FBECDBF88A369A32AA33BA392
:102AE0004CA35DA38AA19BA1ACA1BDA18436910595
:102AF000A105B10508F021C18AA19BA1ACA1BDA18E
:102B00002AE030E040E050E0BC01CD010E94731AA1
:102B1000DA01C9018F8F8AA19BA1ACA1BDA12AE0D6
:102B200030E040E050E0BC01CD010E94731ADC01AE
:102B3000CB018E8F1D8EFDC081E00E94EB1280E0E4
:102B40000E94C61288A169A14E8D0E944B1380E09D
:102B500090E0A0EAB0E4898F9A8FAB8FBC8F698D2B
:102B60007A8D8B8D9C8D20E030E04AE753E40E9403
:102B70001F02DC01CB018D8B9E8BAF8BB88F6D89D3
:102B80007E898F89988D20E030E040E85FE30E94E5
:102B9000250488232CF481E090E09C8B8B8B3FC034
:102BA0006D897E898F89988D20E03FEF4FE757E44C
:102BB0000E94C50318164CF5698D7A8D8B8D9C8DFE
:102BC00020E030E040E251E40E941F02DC01CB0132
:102BD000BC01CD010E944900DC01CB019C8B8B8B99
:102BE0000FC089E190E09A8B898B89899A89019736
:102BF000F1F79A8B898B8B899C8901979C8B8B8BA6
:102C00008B899C89009769F714C06D897E898F89AB
:102C1000988D0E944900DC01CB019C8B8B8B8B89AA
:102C20009C89988B8F878F8598890197F1F7988B6E
:102C30008F8780E00E94EB1281E00E94C61288A17B
:102C400069A14F8D0E944B1380E090E0A0EAB0E4B0
:102C50008B879C87AD87BE876B857C858D859E85A0
:102C600020E030E04AE753E40E941F02DC01CB0180
:102C70008F839887A987BA876F81788589859A8598
:102C800020E030E040E85FE30E94250488232CF434
:102C900081E090E09E838D833FC06F817885898538
:102CA0009A8520E03FEF4FE757E40E94C5031816CE
:102CB0004CF56B857C858D859E8520E030E040E27B
:102CC00051E40E941F02DC01CB01BC01CD010E9436
:102CD0004900DC01CB019E838D830FC089E190E028
:102CE0009C838B838B819C810197F1F79C838B83E1
:102CF0008D819E8101979E838D838D819E8100971A
:102D000069F714C06F81788589859A850E9449008A
:102D1000DC01CB019E838D838D819E819A83898383
:102D200089819A810197F1F79A8389838D8D8F5FCD
:102D30008D8F8D8D8B3008F4FFCEA5960FB6F8944D
:102D4000DEBF0FBECDBFCF91DF910895DF93CF934C
:102D5000CDB7DEB728970FB6F894DEBF0FBECDBF54
:102D60008B836C832D833E834F8358878D819E8117
:102D7000AF81B88584369105A105B105A8F58D818F
:102D80009E81AF81B8852AE030E040E050E0BC0190
:102D9000CD010E94731ADA01C9018A838D819E8157
:102DA000AF81B8852AE030E040E050E0BC01CD01C1
:102DB0000E94731ADC01CB01898380E00E94C61255
:102DC00081E00E94C6128C81813031F481E061E0A3
:102DD00049810E944B1308C08C81882329F480E02C
:102DE00060E04A810E944B1328960FB6F894DEBF2C
:102DF0000FBECDBFCF91DF910895DF93CF93CDB7B5
:102E0000DEB72E970FB6F894DEBF0FBECDBF83E0BE
:102E100062E040E00E948C1283E063E040E00E94A8
:102E20008C1281E062E040E00E948C1280E062E05F
:102E30000E94260A81E062E00E94260A82E062E0A7
:102E40000E94260A80E00E94750780E00E944309E4
:102E500080E060E00E94101381E061E00E941013A6
:102E60000E9427122091680181E093E0622F0E9466
:102E7000301280E090E0A0E2B1E48B879C87AD87C0
:102E8000BE876B857C858D859E8520E030E04AE796
:102E900053E40E941F02DC01CB018F839887A9872E
:102EA000BA876F81788589859A8520E030E040E88F
:102EB0005FE30E94250488232CF481E090E09E8348
:102EC0008D833FC06F81788589859A8520E03FEFAB
:102ED0004FE757E40E94C50318164CF56B857C85B7
:102EE0008D859E8520E030E040E251E40E941F0283
:102EF000DC01CB01BC01CD010E944900DC01CB010A
:102F00009E838D830FC089E190E09C838B838B81AE
:102F10009C810197F1F79C838B838D819E81019722
:102F20009E838D838D819E81009769F714C06F8188
:102F3000788589859A850E944900DC01CB019E83B2
:102F40008D838D819E819A83898389819A8101975E
:102F5000F1F79A8389830E940F110E9433110E9416
:102F6000571180E067E00E9456102E960FB6F89435
:102F7000DEBF0FBECDBFCF91DF910895DF93CF931A
:102F800000D0CDB7DEB780916A01282F30E03A83B8
:102F9000298389819A818130910561F029813A8163
:102FA0002230310551F089819A81009749F40E94BD
:102FB000E317E9CF0E94FE17E6CF0E943419E3CF52
:102FC00010926A01E0CFDF93CF93CDB7DEB780E0F8
:102FD0000E94C60B81E00E94C60B10926B010E94FA
:102FE00027110E944B110E946F1180E00E94EB128A
:102FF00081E00E94EB12CF91DF910895DF93CF9390
:1030000000D000D00F92CDB7DEB71D8280E00E94C5
:103010008F0B81E00E948F0B80916B01882349F414
:103020009E012B5F3F4F81E093E0B9010E94551252
:1030300003C0809168018D8381E080936B0180E003
:1030400090E0A0E0B0E089839A83AB83BC830E94C8
:10305000AC18DC01CB0189839A83AB83BC83698183
:103060007A818B819C810E9449009B01AC0180E0A8
:1030700060E00E94A61669817A818B819C810E9402
:1030800049009B01AC0181E061E00E94A6168D81A0
:10309000882F90E0AA2797FDA095BA2FBC01CD01FB
:1030A0000E9455049B01AC0169817A818B819C81CE
:1030B0000E94C101DC01CB01BC01CD0120E030E068
:1030C00040EA50E40E94C50318162CF40E94271110
:1030D0000E943F112CC08D81882F90E0AA2797FD78
:1030E000A095BA2FBC01CD010E945504DC01CB0193
:1030F000BC01CD0129813A814B815C810E94C101D3
:10310000DC01CB01BC01CD0120E030E040EA50E41D
:103110000E94C50318162CF40E944B110E941B112B
:1031200006C00E944B110E9427110E946F110E943D
:103130000A12813019F40E947B1106C00E940A1203
:10314000823011F40E9463110F900F900F900F9036
:103150000F90CF91DF910895DF93CF93CDB7DEB776
:10316000AD970FB6F894DEBF0FBECDBF80E090E004
:10317000A0E0B0E08A839B83AC83BD83198219826F
:103180002BC084E00E94DF078DE30E9481088091BC
:103190006C018230E1F78981882F90E040916E01C7
:1031A00050916F0160917001709171019C01220F2B
:1031B000331F220F331FCE010196820F931FFC0194
:1031C000359640835183628373830E948F081092E7
:1031D0006C0189818F5F898389818A3090F219829D
:1031E00021C08981882F90E09C01220F331F220F7C
:1031F000331FCE010196820F931FFC01359620816B
:103200003181428153816A817B818C819D810E94C1
:10321000F201DC01CB018A839B83AC83BD8389816E
:103220008F5F898389818A30E0F26A817B818C811A
:103230009D8120E030E040E251E40E941903DC016E
:10324000CB018A839B83AC83BD838A819B81AC81C4
:10325000BD81BC01CD01AD960FB6F894DEBF0FBEA7
:10326000CDBFCF91DF910895DF93CF930F92CDB76C
:10327000DEB7198281E093E09E012F5F3F4FB901D5
:103280000E945512998180916801981729F48091C4
:103290006D018F5F80936D0180916D018630C0F468
:1032A00085E00E94DF078CE00E9481082091680180
:1032B00081E093E0622F0E9430120E946F1980918A
:1032C0006C018430E1F70E948F0810926C01D2CF1C
:1032D00081E080936A010F90CF91DF910895DF9391
:1032E000CF93CDB7DEB780917201813049F480E091
:1032F0000E94EB1281E00E94EB121092720117C043
:1033000080916801282F30E040E050E080E060E0EC
:103310000E94A61680916801282F30E040E050E01E
:1033200081E061E00E94A61681E080937201CF9156
:10333000DF9108951F920F920FB60F9211248F9371
:10334000DF93CF93CDB7DEB780916A01823021F051
:1033500082E080936A010DC0809168018B3420F077
:103360008BE48093680105C0809168018B5F809336
:10337000680110926C0110926D01CF91DF918F91D5
:103380000F900FBE0F901F9018951F920F920FB6BF
:103390000F9211248F93DF93CF93CDB7DEB7809137
:1033A0006A01823021F082E080936A010DC0809131
:1033B0006801843220F483E28093680105C0809123
:1033C000680185508093680110926C0110926D0124
:1033D000CF91DF918F910F900FBE0F901F90189596
:1033E0001F920F920FB60F9211248F93DF93CF93FA
:1033F000CDB7DEB780916A01882321F481E0809304
:103400006A0106C080916A01813011F410926A014C
:10341000CF91DF918F910F900FBE0F901F90189555
:103420001F920F920FB60F9211242F933F934F9339
:103430005F936F937F938F939F93AF93BF93EF931C
:10344000FF93DF93CF93CDB7DEB780916C018F5F91
:1034500080936C0180916A018130C9F480916C0184
:103460008230A9F487E00E946710882F90E0A0E0E6
:10347000B0E0BC01CD010E940705DC01CB018093C7
:103480006E0190936F01A0937001B0937101CF9181
:10349000DF91FF91EF91BF91AF919F918F917F91BC
:1034A0006F915F914F913F912F910F900FBE0F90B1
:1034B0001F901895DF93CF93CDB7DEB70E94FD160E
:1034C0000E94BE1780E090E0CF91DF910895991B94
:1034D00079E004C0991F961708F0961B881F7A950B
:1034E000C9F780950895A1E21A2EAA1BBB1BFD0106
:1034F0000DC0AA1FBB1FEE1FFF1FA217B307E407D3
:10350000F50720F0A21BB30BE40BF50B661F771F2A
:10351000881F991F1A9469F760957095809590950A
:103520009B01AC01BD01CF0108952F923F924F92B4
:103530005F926F927F928F929F92AF92BF92CF9243
:10354000DF92EF92FF920F931F93CF93DF93CDB74C
:10355000DEB7CA1BDB0B0FB6F894DEBF0FBECDBFC4
:1035600009942A88398848885F846E847D848C8495
:103570009B84AA84B984C884DF80EE80FD800C819E
:103580001B81AA81B981CE0FD11D0FB6F894DEBF81
:0C3590000FBECDBFED010895F894FFCFF1
:10359C00000000000000000000010202030303030E
:1035AC0004040404040404040505050505050505C7
:1035BC0005050505050505050606060606060606A7
:1035CC00060606060606060606060606060606068F
:1035DC000606060606060606070707070707070777
:1035EC00070707070707070707070707070707075F
:1035FC00070707070707070707070707070707074F
:10360C00070707070707070707070707070707073E
:10361C000707070707070707080808080808080826
:10362C00080808080808080808080808080808080E
:10363C0008080808080808080808080808080808FE
:10364C0008080808080808080808080808080808EE
:10365C0008080808080808080808080808080808DE
:10366C0008080808080808080808080808080808CE
:10367C0008080808080808080808080808080808BE
:10368C0008080808080808080808080808080808AE
:0A369C0008080808080808083C00A8
:00000001FF
